{
  "_format": "hh-sol-artifact-1",
  "contractName": "Delance",
  "sourceName": "contracts/Delance.sol",
  "abi": [
    {
      "inputs": [
        {
          "internalType": "address payable",
          "name": "_freelancer",
          "type": "address"
        },
        {
          "internalType": "uint256",
          "name": "_deadline",
          "type": "uint256"
        }
      ],
      "stateMutability": "payable",
      "type": "constructor"
    },
    {
      "anonymous": false,
      "inputs": [
        {
          "indexed": false,
          "internalType": "string",
          "name": "title",
          "type": "string"
        },
        {
          "indexed": false,
          "internalType": "uint256",
          "name": "amount",
          "type": "uint256"
        },
        {
          "indexed": false,
          "internalType": "bool",
          "name": "locked",
          "type": "bool"
        },
        {
          "indexed": false,
          "internalType": "bool",
          "name": "paid",
          "type": "bool"
        }
      ],
      "name": "RequestCreated",
      "type": "event"
    },
    {
      "anonymous": false,
      "inputs": [
        {
          "indexed": false,
          "internalType": "address",
          "name": "receiver",
          "type": "address"
        },
        {
          "indexed": false,
          "internalType": "uint256",
          "name": "amount",
          "type": "uint256"
        }
      ],
      "name": "RequestPaid",
      "type": "event"
    },
    {
      "anonymous": false,
      "inputs": [
        {
          "indexed": false,
          "internalType": "bool",
          "name": "locked",
          "type": "bool"
        }
      ],
      "name": "RequestUnlock",
      "type": "event"
    },
    {
      "inputs": [
        {
          "internalType": "string",
          "name": "_title",
          "type": "string"
        },
        {
          "internalType": "uint256",
          "name": "_amount",
          "type": "uint256"
        }
      ],
      "name": "createRequest",
      "outputs": [],
      "stateMutability": "nonpayable",
      "type": "function"
    },
    {
      "inputs": [],
      "name": "deadline",
      "outputs": [
        {
          "internalType": "uint256",
          "name": "",
          "type": "uint256"
        }
      ],
      "stateMutability": "view",
      "type": "function"
    },
    {
      "inputs": [],
      "name": "employer",
      "outputs": [
        {
          "internalType": "address payable",
          "name": "",
          "type": "address"
        }
      ],
      "stateMutability": "view",
      "type": "function"
    },
    {
      "inputs": [],
      "name": "freelancer",
      "outputs": [
        {
          "internalType": "address payable",
          "name": "",
          "type": "address"
        }
      ],
      "stateMutability": "view",
      "type": "function"
    },
    {
      "inputs": [],
      "name": "getAllRequest",
      "outputs": [
        {
          "components": [
            {
              "internalType": "string",
              "name": "title",
              "type": "string"
            },
            {
              "internalType": "uint256",
              "name": "amount",
              "type": "uint256"
            },
            {
              "internalType": "bool",
              "name": "locked",
              "type": "bool"
            },
            {
              "internalType": "bool",
              "name": "paid",
              "type": "bool"
            }
          ],
          "internalType": "struct Delance.Request[]",
          "name": "",
          "type": "tuple[]"
        }
      ],
      "stateMutability": "view",
      "type": "function"
    },
    {
      "inputs": [
        {
          "internalType": "uint256",
          "name": "_index",
          "type": "uint256"
        }
      ],
      "name": "getRequest",
      "outputs": [
        {
          "components": [
            {
              "internalType": "string",
              "name": "title",
              "type": "string"
            },
            {
              "internalType": "uint256",
              "name": "amount",
              "type": "uint256"
            },
            {
              "internalType": "bool",
              "name": "locked",
              "type": "bool"
            },
            {
              "internalType": "bool",
              "name": "paid",
              "type": "bool"
            }
          ],
          "internalType": "struct Delance.Request",
          "name": "",
          "type": "tuple"
        }
      ],
      "stateMutability": "view",
      "type": "function"
    },
    {
      "inputs": [
        {
          "internalType": "uint256",
          "name": "_index",
          "type": "uint256"
        }
      ],
      "name": "payRequest",
      "outputs": [],
      "stateMutability": "nonpayable",
      "type": "function"
    },
    {
      "inputs": [],
      "name": "price",
      "outputs": [
        {
          "internalType": "uint256",
          "name": "",
          "type": "uint256"
        }
      ],
      "stateMutability": "view",
      "type": "function"
    },
    {
      "inputs": [
        {
          "internalType": "uint256",
          "name": "",
          "type": "uint256"
        }
      ],
      "name": "requests",
      "outputs": [
        {
          "internalType": "string",
          "name": "title",
          "type": "string"
        },
        {
          "internalType": "uint256",
          "name": "amount",
          "type": "uint256"
        },
        {
          "internalType": "bool",
          "name": "locked",
          "type": "bool"
        },
        {
          "internalType": "bool",
          "name": "paid",
          "type": "bool"
        }
      ],
      "stateMutability": "view",
      "type": "function"
    },
    {
      "inputs": [
        {
          "internalType": "uint256",
          "name": "_index",
          "type": "uint256"
        }
      ],
      "name": "unlockRequest",
      "outputs": [],
      "stateMutability": "nonpayable",
      "type": "function"
    },
    {
      "stateMutability": "payable",
      "type": "receive"
    }
  ],
  "bytecode": "0x60806040526000600360006101000a81548160ff02191690831515021790555060405162001c3438038062001c3483398181016040528101906200004491906200018b565b33600160006101000a81548173ffffffffffffffffffffffffffffffffffffffff021916908373ffffffffffffffffffffffffffffffffffffffff160217905550816000806101000a81548173ffffffffffffffffffffffffffffffffffffffff021916908373ffffffffffffffffffffffffffffffffffffffff160217905550806002819055506000341115620000de57346004819055505b5050620001d2565b600080fd5b600073ffffffffffffffffffffffffffffffffffffffff82169050919050565b60006200011882620000eb565b9050919050565b6200012a816200010b565b81146200013657600080fd5b50565b6000815190506200014a816200011f565b92915050565b6000819050919050565b620001658162000150565b81146200017157600080fd5b50565b60008151905062000185816200015a565b92915050565b60008060408385031215620001a557620001a4620000e6565b5b6000620001b58582860162000139565b9250506020620001c88582860162000174565b9150509250929050565b611a5280620001e26000396000f3fe6080604052600436106100955760003560e01c8063a035b1fe11610059578063a035b1fe146101ac578063a37dda2c146101d7578063aa6e90c014610202578063ae200e791461022b578063c58343ef14610256576100bf565b80631cc19867146100c457806329dcb0cf146100ed578063545569ba1461011857806363d4dd3b1461014357806381d12c581461016c576100bf565b366100bf5760003411156100bd5734600460008282546100b59190610ced565b925050819055505b005b600080fd5b3480156100d057600080fd5b506100eb60048036038101906100e69190610d61565b610293565b005b3480156100f957600080fd5b50610102610403565b60405161010f9190610d9d565b60405180910390f35b34801561012457600080fd5b5061012d610409565b60405161013a9190610f97565b60405180910390f35b34801561014f57600080fd5b5061016a60048036038101906101659190610d61565b61053a565b005b34801561017857600080fd5b50610193600480360381019061018e9190610d61565b6108af565b6040516101a39493929190611012565b60405180910390f35b3480156101b857600080fd5b506101c1610991565b6040516101ce9190610d9d565b60405180910390f35b3480156101e357600080fd5b506101ec610997565b6040516101f9919061109f565b60405180910390f35b34801561020e57600080fd5b50610229600480360381019061022491906111ef565b6109bb565b005b34801561023757600080fd5b50610240610b54565b60405161024d919061109f565b60405180910390f35b34801561026257600080fd5b5061027d60048036038101906102789190610d61565b610b7a565b60405161028a91906112ae565b60405180910390f35b600160009054906101000a900473ffffffffffffffffffffffffffffffffffffffff1673ffffffffffffffffffffffffffffffffffffffff163373ffffffffffffffffffffffffffffffffffffffff1614610323576040517f08c379a000000000000000000000000000000000000000000000000000000000815260040161031a9061131c565b60405180910390fd5b6000600582815481106103395761033861133c565b5b906000526020600020906003020190508060020160009054906101000a900460ff1661039a576040517f08c379a0000000000000000000000000000000000000000000000000000000008152600401610391906113b7565b60405180910390fd5b60008160020160006101000a81548160ff0219169083151502179055507f5333976ed78cf67a10439a622b5f08fd836af30719446e03fd0a9b7bcf15b79f8160020160009054906101000a900460ff166040516103f791906113d7565b60405180910390a15050565b60025481565b60606005805480602002602001604051908101604052809291908181526020016000905b82821015610531578382906000526020600020906003020160405180608001604052908160008201805461046090611421565b80601f016020809104026020016040519081016040528092919081815260200182805461048c90611421565b80156104d95780601f106104ae576101008083540402835291602001916104d9565b820191906000526020600020905b8154815290600101906020018083116104bc57829003601f168201915b50505050508152602001600182015481526020016002820160009054906101000a900460ff161515151581526020016002820160019054906101000a900460ff1615151515815250508152602001906001019061042d565b50505050905090565b60008054906101000a900473ffffffffffffffffffffffffffffffffffffffff1673ffffffffffffffffffffffffffffffffffffffff163373ffffffffffffffffffffffffffffffffffffffff16146105c8576040517f08c379a00000000000000000000000000000000000000000000000000000000081526004016105bf9061149e565b60405180910390fd5b600360009054906101000a900460ff1615610618576040517f08c379a000000000000000000000000000000000000000000000000000000000815260040161060f9061150a565b60405180910390fd5b60006005828154811061062e5761062d61133c565b5b906000526020600020906003020190508060020160009054906101000a900460ff1615610690576040517f08c379a000000000000000000000000000000000000000000000000000000000815260040161068790611576565b60405180910390fd5b8060020160019054906101000a900460ff16156106e2576040517f08c379a00000000000000000000000000000000000000000000000000000000081526004016106d9906115e2565b60405180910390fd5b80600101546004541161072a576040517f08c379a00000000000000000000000000000000000000000000000000000000081526004016107219061164e565b60405180910390fd5b6001600360006101000a81548160ff02191690831515021790555060008060008054906101000a900473ffffffffffffffffffffffffffffffffffffffff1673ffffffffffffffffffffffffffffffffffffffff1683600101546040516107909061169f565b60006040518083038185875af1925050503d80600081146107cd576040519150601f19603f3d011682016040523d82523d6000602084013e6107d2565b606091505b50915091508260010154600460008282546107ed91906116b4565b9250508190555081610834576040517f08c379a000000000000000000000000000000000000000000000000000000000815260040161082b90611734565b60405180910390fd5b60018360020160016101000a81548160ff0219169083151502179055506000600360006101000a81548160ff0219169083151502179055507f8d3c4c2bd7fcd40b8e44b6e7331c1b5e1fd5cd51c8a6ff8a2051bc8280b1d88c3384600101546040516108a1929190611775565b60405180910390a150505050565b600581815481106108bf57600080fd5b90600052602060002090600302016000915090508060000180546108e290611421565b80601f016020809104026020016040519081016040528092919081815260200182805461090e90611421565b801561095b5780601f106109305761010080835404028352916020019161095b565b820191906000526020600020905b81548152906001019060200180831161093e57829003601f168201915b5050505050908060010154908060020160009054906101000a900460ff16908060020160019054906101000a900460ff16905084565b60045481565b60008054906101000a900473ffffffffffffffffffffffffffffffffffffffff1681565b60008054906101000a900473ffffffffffffffffffffffffffffffffffffffff1673ffffffffffffffffffffffffffffffffffffffff163373ffffffffffffffffffffffffffffffffffffffff1614610a49576040517f08c379a0000000000000000000000000000000000000000000000000000000008152600401610a409061149e565b60405180910390fd5b6000604051806080016040528084815260200183815260200160011515815260200160001515815250905060058190806001815401808255809150506001900390600052602060002090600302016000909190919091506000820151816000019081610ab5919061194a565b506020820151816001015560408201518160020160006101000a81548160ff02191690831515021790555060608201518160020160016101000a81548160ff02191690831515021790555050507f42b4ffa6b26ed6a5ced111f7f6726ffca1ed194bf62f22f151829f2670514b8f8160000151826020015183604001518460600151604051610b479493929190611012565b60405180910390a1505050565b600160009054906101000a900473ffffffffffffffffffffffffffffffffffffffff1681565b610b82610c88565b60058281548110610b9657610b9561133c565b5b9060005260206000209060030201604051806080016040529081600082018054610bbf90611421565b80601f0160208091040260200160405190810160405280929190818152602001828054610beb90611421565b8015610c385780601f10610c0d57610100808354040283529160200191610c38565b820191906000526020600020905b815481529060010190602001808311610c1b57829003601f168201915b50505050508152602001600182015481526020016002820160009054906101000a900460ff161515151581526020016002820160019054906101000a900460ff1615151515815250509050919050565b604051806080016040528060608152602001600081526020016000151581526020016000151581525090565b6000819050919050565b7f4e487b7100000000000000000000000000000000000000000000000000000000600052601160045260246000fd5b6000610cf882610cb4565b9150610d0383610cb4565b9250828201905080821115610d1b57610d1a610cbe565b5b92915050565b6000604051905090565b600080fd5b600080fd5b610d3e81610cb4565b8114610d4957600080fd5b50565b600081359050610d5b81610d35565b92915050565b600060208284031215610d7757610d76610d2b565b5b6000610d8584828501610d4c565b91505092915050565b610d9781610cb4565b82525050565b6000602082019050610db26000830184610d8e565b92915050565b600081519050919050565b600082825260208201905092915050565b6000819050602082019050919050565b600081519050919050565b600082825260208201905092915050565b60005b83811015610e1e578082015181840152602081019050610e03565b60008484015250505050565b6000601f19601f8301169050919050565b6000610e4682610de4565b610e508185610def565b9350610e60818560208601610e00565b610e6981610e2a565b840191505092915050565b610e7d81610cb4565b82525050565b60008115159050919050565b610e9881610e83565b82525050565b60006080830160008301518482036000860152610ebb8282610e3b565b9150506020830151610ed06020860182610e74565b506040830151610ee36040860182610e8f565b506060830151610ef66060860182610e8f565b508091505092915050565b6000610f0d8383610e9e565b905092915050565b6000602082019050919050565b6000610f2d82610db8565b610f378185610dc3565b935083602082028501610f4985610dd4565b8060005b85811015610f855784840389528151610f668582610f01565b9450610f7183610f15565b925060208a01995050600181019050610f4d565b50829750879550505050505092915050565b60006020820190508181036000830152610fb18184610f22565b905092915050565b600082825260208201905092915050565b6000610fd582610de4565b610fdf8185610fb9565b9350610fef818560208601610e00565b610ff881610e2a565b840191505092915050565b61100c81610e83565b82525050565b6000608082019050818103600083015261102c8187610fca565b905061103b6020830186610d8e565b6110486040830185611003565b6110556060830184611003565b95945050505050565b600073ffffffffffffffffffffffffffffffffffffffff82169050919050565b60006110898261105e565b9050919050565b6110998161107e565b82525050565b60006020820190506110b46000830184611090565b92915050565b600080fd5b600080fd5b7f4e487b7100000000000000000000000000000000000000000000000000000000600052604160045260246000fd5b6110fc82610e2a565b810181811067ffffffffffffffff8211171561111b5761111a6110c4565b5b80604052505050565b600061112e610d21565b905061113a82826110f3565b919050565b600067ffffffffffffffff82111561115a576111596110c4565b5b61116382610e2a565b9050602081019050919050565b82818337600083830152505050565b600061119261118d8461113f565b611124565b9050828152602081018484840111156111ae576111ad6110bf565b5b6111b9848285611170565b509392505050565b600082601f8301126111d6576111d56110ba565b5b81356111e684826020860161117f565b91505092915050565b6000806040838503121561120657611205610d2b565b5b600083013567ffffffffffffffff81111561122457611223610d30565b5b611230858286016111c1565b925050602061124185828601610d4c565b9150509250929050565b600060808301600083015184820360008601526112688282610e3b565b915050602083015161127d6020860182610e74565b5060408301516112906040860182610e8f565b5060608301516112a36060860182610e8f565b508091505092915050565b600060208201905081810360008301526112c8818461124b565b905092915050565b7f4f6e6c7920456d706c6f79657221000000000000000000000000000000000000600082015250565b6000611306600e83610fb9565b9150611311826112d0565b602082019050919050565b60006020820190508181036000830152611335816112f9565b9050919050565b7f4e487b7100000000000000000000000000000000000000000000000000000000600052603260045260246000fd5b7f416c726561647920756e6c6f636b656400000000000000000000000000000000600082015250565b60006113a1601083610fb9565b91506113ac8261136b565b602082019050919050565b600060208201905081810360008301526113d081611394565b9050919050565b60006020820190506113ec6000830184611003565b92915050565b7f4e487b7100000000000000000000000000000000000000000000000000000000600052602260045260246000fd5b6000600282049050600182168061143957607f821691505b60208210810361144c5761144b6113f2565b5b50919050565b7f4f6e6c7920467265656c616e6365722100000000000000000000000000000000600082015250565b6000611488601083610fb9565b915061149382611452565b602082019050919050565b600060208201905081810360008301526114b78161147b565b9050919050565b7f5265656e7472616e742064657465637465642100000000000000000000000000600082015250565b60006114f4601383610fb9565b91506114ff826114be565b602082019050919050565b60006020820190508181036000830152611523816114e7565b9050919050565b7f52657175657374206973206c6f636b6564000000000000000000000000000000600082015250565b6000611560601183610fb9565b915061156b8261152a565b602082019050919050565b6000602082019050818103600083015261158f81611553565b9050919050565b7f416c726561647920706169640000000000000000000000000000000000000000600082015250565b60006115cc600c83610fb9565b91506115d782611596565b602082019050919050565b600060208201905081810360008301526115fb816115bf565b9050919050565b7f446f6e742042616c616365000000000000000000000000000000000000000000600082015250565b6000611638600b83610fb9565b915061164382611602565b602082019050919050565b600060208201905081810360008301526116678161162b565b9050919050565b600081905092915050565b50565b600061168960008361166e565b915061169482611679565b600082019050919050565b60006116aa8261167c565b9150819050919050565b60006116bf82610cb4565b91506116ca83610cb4565b92508282039050818111156116e2576116e1610cbe565b5b92915050565b7f5472616e73666572206661696c65642e00000000000000000000000000000000600082015250565b600061171e601083610fb9565b9150611729826116e8565b602082019050919050565b6000602082019050818103600083015261174d81611711565b9050919050565b600061175f8261105e565b9050919050565b61176f81611754565b82525050565b600060408201905061178a6000830185611766565b6117976020830184610d8e565b9392505050565b60008190508160005260206000209050919050565b60006020601f8301049050919050565b600082821b905092915050565b6000600883026118007fffffffffffffffffffffffffffffffffffffffffffffffffffffffffffffffff826117c3565b61180a86836117c3565b95508019841693508086168417925050509392505050565b6000819050919050565b600061184761184261183d84610cb4565b611822565b610cb4565b9050919050565b6000819050919050565b6118618361182c565b61187561186d8261184e565b8484546117d0565b825550505050565b600090565b61188a61187d565b611895818484611858565b505050565b5b818110156118b9576118ae600082611882565b60018101905061189b565b5050565b601f8211156118fe576118cf8161179e565b6118d8846117b3565b810160208510156118e7578190505b6118fb6118f3856117b3565b83018261189a565b50505b505050565b600082821c905092915050565b600061192160001984600802611903565b1980831691505092915050565b600061193a8383611910565b9150826002028217905092915050565b61195382610de4565b67ffffffffffffffff81111561196c5761196b6110c4565b5b6119768254611421565b6119818282856118bd565b600060209050601f8311600181146119b457600084156119a2578287015190505b6119ac858261192e565b865550611a14565b601f1984166119c28661179e565b60005b828110156119ea578489015182556001820191506020850194506020810190506119c5565b86831015611a075784890151611a03601f891682611910565b8355505b6001600288020188555050505b50505050505056fea26469706673582212200dfae83d799346337a3f2de005954c78999ae108abdd6e4cd047ea119e0d11cd64736f6c63430008110033",
  "linkReferences": {},
  "deployedLinkReferences": {}
}